{
  "_format": "hh-sol-artifact-1",
  "contractName": "Raffle",
  "sourceName": "contracts/Raffle.sol",
  "abi": [
    {
      "inputs": [
        {
          "internalType": "address",
          "name": "vrfCoordinatorV2",
          "type": "address"
        },
        {
          "internalType": "uint256",
          "name": "entranceFee",
          "type": "uint256"
        },
        {
          "internalType": "bytes32",
          "name": "gasLane",
          "type": "bytes32"
        },
        {
          "internalType": "uint64",
          "name": "subscriptionId",
          "type": "uint64"
        },
        {
          "internalType": "uint32",
          "name": "callbackGasLimit",
          "type": "uint32"
        },
        {
          "internalType": "uint256",
          "name": "interval",
          "type": "uint256"
        }
      ],
      "stateMutability": "nonpayable",
      "type": "constructor"
    },
    {
      "inputs": [
        {
          "internalType": "address",
          "name": "have",
          "type": "address"
        },
        {
          "internalType": "address",
          "name": "want",
          "type": "address"
        }
      ],
      "name": "OnlyCoordinatorCanFulfill",
      "type": "error"
    },
    {
      "inputs": [],
      "name": "Raffle__NotEnoughETHEntered",
      "type": "error"
    },
    {
      "inputs": [],
      "name": "Raffle__NotOpen",
      "type": "error"
    },
    {
      "inputs": [],
      "name": "Raffle__TransferFail",
      "type": "error"
    },
    {
      "inputs": [
        {
          "internalType": "uint256",
          "name": "currentBalance",
          "type": "uint256"
        },
        {
          "internalType": "uint256",
          "name": "numPlayers",
          "type": "uint256"
        },
        {
          "internalType": "uint256",
          "name": "raffleState",
          "type": "uint256"
        }
      ],
      "name": "Raffle__UpKeepNotNeeded",
      "type": "error"
    },
    {
      "anonymous": false,
      "inputs": [
        {
          "indexed": true,
          "internalType": "address",
          "name": "player",
          "type": "address"
        }
      ],
      "name": "RaffleEnter",
      "type": "event"
    },
    {
      "anonymous": false,
      "inputs": [
        {
          "indexed": true,
          "internalType": "uint256",
          "name": "requestId",
          "type": "uint256"
        }
      ],
      "name": "RequestedRaffleWinner",
      "type": "event"
    },
    {
      "anonymous": false,
      "inputs": [
        {
          "indexed": true,
          "internalType": "address",
          "name": "s_recentWinner",
          "type": "address"
        }
      ],
      "name": "WinnerPicked",
      "type": "event"
    },
    {
      "inputs": [
        {
          "internalType": "bytes",
          "name": "",
          "type": "bytes"
        }
      ],
      "name": "checkUpkeep",
      "outputs": [
        {
          "internalType": "bool",
          "name": "upkeepNeeded",
          "type": "bool"
        },
        {
          "internalType": "bytes",
          "name": "",
          "type": "bytes"
        }
      ],
      "stateMutability": "nonpayable",
      "type": "function"
    },
    {
      "inputs": [],
      "name": "enterRaffle",
      "outputs": [],
      "stateMutability": "payable",
      "type": "function"
    },
    {
      "inputs": [],
      "name": "getEntracneFee",
      "outputs": [
        {
          "internalType": "uint256",
          "name": "",
          "type": "uint256"
        }
      ],
      "stateMutability": "view",
      "type": "function"
    },
    {
      "inputs": [],
      "name": "getLastestTime",
      "outputs": [
        {
          "internalType": "uint256",
          "name": "",
          "type": "uint256"
        }
      ],
      "stateMutability": "view",
      "type": "function"
    },
    {
      "inputs": [],
      "name": "getNumWords",
      "outputs": [
        {
          "internalType": "uint256",
          "name": "",
          "type": "uint256"
        }
      ],
      "stateMutability": "pure",
      "type": "function"
    },
    {
      "inputs": [],
      "name": "getNumberOfPlayers",
      "outputs": [
        {
          "internalType": "uint256",
          "name": "",
          "type": "uint256"
        }
      ],
      "stateMutability": "view",
      "type": "function"
    },
    {
      "inputs": [
        {
          "internalType": "uint256",
          "name": "index",
          "type": "uint256"
        }
      ],
      "name": "getPlayer",
      "outputs": [
        {
          "internalType": "address",
          "name": "",
          "type": "address"
        }
      ],
      "stateMutability": "view",
      "type": "function"
    },
    {
      "inputs": [],
      "name": "getRaffleState",
      "outputs": [
        {
          "internalType": "enum Raffle.RaffleState",
          "name": "",
          "type": "uint8"
        }
      ],
      "stateMutability": "view",
      "type": "function"
    },
    {
      "inputs": [],
      "name": "getRecentWinner",
      "outputs": [
        {
          "internalType": "address",
          "name": "",
          "type": "address"
        }
      ],
      "stateMutability": "view",
      "type": "function"
    },
    {
      "inputs": [
        {
          "internalType": "bytes",
          "name": "",
          "type": "bytes"
        }
      ],
      "name": "performUpkeep",
      "outputs": [],
      "stateMutability": "nonpayable",
      "type": "function"
    },
    {
      "inputs": [
        {
          "internalType": "uint256",
          "name": "requestId",
          "type": "uint256"
        },
        {
          "internalType": "uint256[]",
          "name": "randomWords",
          "type": "uint256[]"
        }
      ],
      "name": "rawFulfillRandomWords",
      "outputs": [],
      "stateMutability": "nonpayable",
      "type": "function"
    }
  ],
  "bytecode": "0x6101606040523480156200001257600080fd5b5060405162001781380380620017818339818101604052810190620000389190620001ad565b858073ffffffffffffffffffffffffffffffffffffffff1660808173ffffffffffffffffffffffffffffffffffffffff1660601b81525050508460a081815250508573ffffffffffffffffffffffffffffffffffffffff1660c08173ffffffffffffffffffffffffffffffffffffffff1660601b815250508360e081815250508267ffffffffffffffff166101008167ffffffffffffffff1660c01b815250508163ffffffff166101208163ffffffff1660e01b815250506000600160146101000a81548160ff02191690836001811115620001195762000118620002b5565b5b0217905550426002819055508061014081815250505050505050506200036b565b6000815190506200014b81620002e9565b92915050565b600081519050620001628162000303565b92915050565b60008151905062000179816200031d565b92915050565b600081519050620001908162000337565b92915050565b600081519050620001a78162000351565b92915050565b60008060008060008060c08789031215620001cd57620001cc620002e4565b5b6000620001dd89828a016200013a565b9650506020620001f089828a0162000168565b95505060406200020389828a0162000151565b94505060606200021689828a0162000196565b93505060806200022989828a016200017f565b92505060a06200023c89828a0162000168565b9150509295509295509295565b6000620002568262000267565b9050919050565b6000819050919050565b600073ffffffffffffffffffffffffffffffffffffffff82169050919050565b6000819050919050565b600063ffffffff82169050919050565b600067ffffffffffffffff82169050919050565b7f4e487b7100000000000000000000000000000000000000000000000000000000600052602160045260246000fd5b600080fd5b620002f48162000249565b81146200030057600080fd5b50565b6200030e816200025d565b81146200031a57600080fd5b50565b620003288162000287565b81146200033457600080fd5b50565b620003428162000291565b81146200034e57600080fd5b50565b6200035c81620002a1565b81146200036857600080fd5b50565b60805160601c60a05160c05160601c60e0516101005160c01c6101205160e01c610140516113a1620003e060003960006107630152600061061f015260006105fc015260006105db0152600061059f015260008181610295015261037b0152600081816102bb015261030f01526113a16000f3fe60806040526004361061009c5760003560e01c8063473f1ddc11610064578063473f1ddc1461015357806353a2c19a1461017e5780636e04ff0d146101a9578063d673b000146101e7578063e55ae4e814610212578063fd6673f51461024f5761009c565b8063115cbaf5146100a15780631b08e9c8146100cc5780631fe543e3146100f75780632cfcc539146101205780634585e33b1461012a575b600080fd5b3480156100ad57600080fd5b506100b661027a565b6040516100c39190610f8c565b60405180910390f35b3480156100d857600080fd5b506100e1610291565b6040516100ee9190610fa7565b60405180910390f35b34801561010357600080fd5b5061011e60048036038101906101199190610d80565b6102b9565b005b610128610379565b005b34801561013657600080fd5b50610151600480360381019061014c9190610c90565b6104e8565b005b34801561015f57600080fd5b506101686106e7565b6040516101759190610ec5565b60405180910390f35b34801561018a57600080fd5b50610193610711565b6040516101a09190610fa7565b60405180910390f35b3480156101b557600080fd5b506101d060048036038101906101cb9190610cdd565b610720565b6040516101de929190610f09565b60405180910390f35b3480156101f357600080fd5b506101fc6107cd565b6040516102099190610fa7565b60405180910390f35b34801561021e57600080fd5b5061023960048036038101906102349190610d26565b6107d7565b6040516102469190610ec5565b60405180910390f35b34801561025b57600080fd5b5061026461081e565b6040516102719190610fa7565b60405180910390f35b6000600160149054906101000a900460ff16905090565b60007f0000000000000000000000000000000000000000000000000000000000000000905090565b7f000000000000000000000000000000000000000000000000000000000000000073ffffffffffffffffffffffffffffffffffffffff163373ffffffffffffffffffffffffffffffffffffffff161461036b57337f00000000000000000000000000000000000000000000000000000000000000006040517f1cf993f4000000000000000000000000000000000000000000000000000000008152600401610362929190610ee0565b60405180910390fd5b610375828261082a565b5050565b7f00000000000000000000000000000000000000000000000000000000000000003410156103d3576040517fbd4e069500000000000000000000000000000000000000000000000000000000815260040160405180910390fd5b600060018111156103e7576103e6611281565b5b600160149054906101000a900460ff16600181111561040957610408611281565b5b14610440576040517f1425571c00000000000000000000000000000000000000000000000000000000815260040160405180910390fd5b6000339080600181540180825580915050600190039060005260206000200160009091909190916101000a81548173ffffffffffffffffffffffffffffffffffffffff021916908373ffffffffffffffffffffffffffffffffffffffff1602179055503373ffffffffffffffffffffffffffffffffffffffff167f0805e1d667bddb8a95f0f09880cf94f403fb596ce79928d9f29b74203ba284d460405160405180910390a2565b600061050260405180602001604052806000815250610720565b509050806105715747600080549050600160149054906101000a900460ff16600181111561053357610532611281565b5b6040517f3a8d608600000000000000000000000000000000000000000000000000000000815260040161056893929190610fc2565b60405180910390fd5b60018060146101000a81548160ff0219169083600181111561059657610595611281565b5b021790555060007f000000000000000000000000000000000000000000000000000000000000000073ffffffffffffffffffffffffffffffffffffffff16635d3b1d307f00000000000000000000000000000000000000000000000000000000000000007f000000000000000000000000000000000000000000000000000000000000000060037f000000000000000000000000000000000000000000000000000000000000000060016040518663ffffffff1660e01b8152600401610660959493929190610f39565b602060405180830381600087803b15801561067a57600080fd5b505af115801561068e573d6000803e3d6000fd5b505050506040513d601f19601f820116820180604052508101906106b29190610d53565b9050807fcd6e45c8998311cab7e9d4385596cac867e20a0587194b954fa3a731c93ce78b60405160405180910390a250505050565b6000600160009054906101000a900473ffffffffffffffffffffffffffffffffffffffff16905090565b6000600163ffffffff16905090565b600060606000600160149054906101000a900460ff16600181111561074857610747611281565b5b6000600181111561075c5761075b611281565b5b14905060007f00000000000000000000000000000000000000000000000000000000000000006002544261079091906110a2565b119050600080600080549050119050600080471190508380156107b05750825b80156107b95750815b80156107c25750805b955050505050915091565b6000600254905090565b60008082815481106107ec576107eb6112b0565b5b9060005260206000200160009054906101000a900473ffffffffffffffffffffffffffffffffffffffff169050919050565b60008080549050905090565b6000808054905082600081518110610845576108446112b0565b5b602002602001015161085791906111f2565b9050600080828154811061086e5761086d6112b0565b5b9060005260206000200160009054906101000a900473ffffffffffffffffffffffffffffffffffffffff16905080600160006101000a81548173ffffffffffffffffffffffffffffffffffffffff021916908373ffffffffffffffffffffffffffffffffffffffff1602179055506000600160146101000a81548160ff0219169083600181111561090257610901611281565b5b0217905550600067ffffffffffffffff811115610922576109216112df565b5b6040519080825280602002602001820160405280156109505781602001602082028036833780820191505090505b5060009080519060200190610966929190610a5b565b504260028190555060008173ffffffffffffffffffffffffffffffffffffffff164760405161099490610eb0565b60006040518083038185875af1925050503d80600081146109d1576040519150601f19603f3d011682016040523d82523d6000602084013e6109d6565b606091505b5050905080610a11576040517f47c5e6cd00000000000000000000000000000000000000000000000000000000815260040160405180910390fd5b8173ffffffffffffffffffffffffffffffffffffffff167f5b690ec4a06fe979403046eaeea5b3ce38524683c3001f662c8b5a829632f7df60405160405180910390a25050505050565b828054828255906000526020600020908101928215610ad4579160200282015b82811115610ad35782518260006101000a81548173ffffffffffffffffffffffffffffffffffffffff021916908373ffffffffffffffffffffffffffffffffffffffff16021790555091602001919060010190610a7b565b5b509050610ae19190610ae5565b5090565b5b80821115610afe576000816000905550600101610ae6565b5090565b6000610b15610b108461101e565b610ff9565b90508083825260208201905082856020860282011115610b3857610b37611318565b5b60005b85811015610b685781610b4e8882610c66565b845260208401935060208301925050600181019050610b3b565b5050509392505050565b6000610b85610b808461104a565b610ff9565b905082815260208101848484011115610ba157610ba061131d565b5b610bac84828561117f565b509392505050565b600082601f830112610bc957610bc8611313565b5b8135610bd9848260208601610b02565b91505092915050565b60008083601f840112610bf857610bf7611313565b5b8235905067ffffffffffffffff811115610c1557610c1461130e565b5b602083019150836001820283011115610c3157610c30611318565b5b9250929050565b600082601f830112610c4d57610c4c611313565b5b8135610c5d848260208601610b72565b91505092915050565b600081359050610c7581611354565b92915050565b600081519050610c8a81611354565b92915050565b60008060208385031215610ca757610ca6611327565b5b600083013567ffffffffffffffff811115610cc557610cc4611322565b5b610cd185828601610be2565b92509250509250929050565b600060208284031215610cf357610cf2611327565b5b600082013567ffffffffffffffff811115610d1157610d10611322565b5b610d1d84828501610c38565b91505092915050565b600060208284031215610d3c57610d3b611327565b5b6000610d4a84828501610c66565b91505092915050565b600060208284031215610d6957610d68611327565b5b6000610d7784828501610c7b565b91505092915050565b60008060408385031215610d9757610d96611327565b5b6000610da585828601610c66565b925050602083013567ffffffffffffffff811115610dc657610dc5611322565b5b610dd285828601610bb4565b9150509250929050565b610de5816110d6565b82525050565b610df4816110e8565b82525050565b610e03816110f4565b82525050565b6000610e148261107b565b610e1e8185611086565b9350610e2e81856020860161118e565b610e378161132c565b840191505092915050565b610e4b8161116d565b82525050565b6000610e5e600083611097565b9150610e698261133d565b600082019050919050565b610e7d81611111565b82525050565b610e8c8161113f565b82525050565b610e9b81611149565b82525050565b610eaa81611159565b82525050565b6000610ebb82610e51565b9150819050919050565b6000602082019050610eda6000830184610ddc565b92915050565b6000604082019050610ef56000830185610ddc565b610f026020830184610ddc565b9392505050565b6000604082019050610f1e6000830185610deb565b8181036020830152610f308184610e09565b90509392505050565b600060a082019050610f4e6000830188610dfa565b610f5b6020830187610ea1565b610f686040830186610e74565b610f756060830185610e92565b610f826080830184610e92565b9695505050505050565b6000602082019050610fa16000830184610e42565b92915050565b6000602082019050610fbc6000830184610e83565b92915050565b6000606082019050610fd76000830186610e83565b610fe46020830185610e83565b610ff16040830184610e83565b949350505050565b6000611003611014565b905061100f82826111c1565b919050565b6000604051905090565b600067ffffffffffffffff821115611039576110386112df565b5b602082029050602081019050919050565b600067ffffffffffffffff821115611065576110646112df565b5b61106e8261132c565b9050602081019050919050565b600081519050919050565b600082825260208201905092915050565b600081905092915050565b60006110ad8261113f565b91506110b88361113f565b9250828210156110cb576110ca611223565b5b828203905092915050565b60006110e18261111f565b9050919050565b60008115159050919050565b6000819050919050565b600081905061110c82611340565b919050565b600061ffff82169050919050565b600073ffffffffffffffffffffffffffffffffffffffff82169050919050565b6000819050919050565b600063ffffffff82169050919050565b600067ffffffffffffffff82169050919050565b6000611178826110fe565b9050919050565b82818337600083830152505050565b60005b838110156111ac578082015181840152602081019050611191565b838111156111bb576000848401525b50505050565b6111ca8261132c565b810181811067ffffffffffffffff821117156111e9576111e86112df565b5b80604052505050565b60006111fd8261113f565b91506112088361113f565b92508261121857611217611252565b5b828206905092915050565b7f4e487b7100000000000000000000000000000000000000000000000000000000600052601160045260246000fd5b7f4e487b7100000000000000000000000000000000000000000000000000000000600052601260045260246000fd5b7f4e487b7100000000000000000000000000000000000000000000000000000000600052602160045260246000fd5b7f4e487b7100000000000000000000000000000000000000000000000000000000600052603260045260246000fd5b7f4e487b7100000000000000000000000000000000000000000000000000000000600052604160045260246000fd5b600080fd5b600080fd5b600080fd5b600080fd5b600080fd5b600080fd5b6000601f19601f8301169050919050565b50565b6002811061135157611350611281565b5b50565b61135d8161113f565b811461136857600080fd5b5056fea2646970667358221220fe44107f880cee70f1446cf7b8f3092ec2de95fddf5f058da5be583a46725d1764736f6c63430008070033",
  "linkReferences": {},
  "deployedLinkReferences": {}
}